{
  "transactions": [
    {
      "hash": "0xc182f6e965536b08c5ca7fb79c808f6ae6330ef5b4ea5507d376773751356e8e",
      "transactionType": "CALL",
      "contractName": null,
      "contractAddress": "0x4e1dcf7ad4e460cfd30791ccc4f9c8a4f820ec67",
      "function": "createProxyWithNonce(address,bytes,uint256)",
      "arguments": [
        "0x29fcB43b46531BcA003ddC8FCB67FFE91900C762",
        "0xb63e800d0000000000000000000000000000000000000000000000000000000000000100000000000000000000000000000000000000000000000000000000000000000200000000000000000000000000000000000000000000000000000000000000000000000000000000000000000000000000000000000000000000000000000180000000000000000000000000fd0732dc9e303f09fcef3a7388ad10a83459ec9900000000000000000000000000000000000000000000000000000000000000000000000000000000000000000000000000000000000000000000000000000000000000000000000000000000000000000000000000000000000000000000000000000000000000000000000000000000000000000000000000000000000000030000000000000000000000009f0d5cf1804b10fadc48ea88a582783477bc885e00000000000000000000000048a7d0965e173516ab6b0de781e835df6cc990b00000000000000000000000000935ec1a1f4480a063e09f735d593cc44eb6b3060000000000000000000000000000000000000000000000000000000000000000",
        "64241004689341789827513585156438153588992393388004514120196487263627374333554"
      ],
      "transaction": {
        "from": "0x0935ec1a1f4480a063e09f735d593cc44eb6b306",
        "to": "0x4e1dcf7ad4e460cfd30791ccc4f9c8a4f820ec67",
        "gas": "0x7736f",
        "value": "0x0",
        "input": "0x1688f0b900000000000000000000000029fcb43b46531bca003ddc8fcb67ffe91900c76200000000000000000000000000000000000000000000000000000000000000608e071ec13351608fd1ed5cecc9bfbef89633d5c6156088ab83255170632d8e7200000000000000000000000000000000000000000000000000000000000001a4b63e800d0000000000000000000000000000000000000000000000000000000000000100000000000000000000000000000000000000000000000000000000000000000200000000000000000000000000000000000000000000000000000000000000000000000000000000000000000000000000000000000000000000000000000180000000000000000000000000fd0732dc9e303f09fcef3a7388ad10a83459ec9900000000000000000000000000000000000000000000000000000000000000000000000000000000000000000000000000000000000000000000000000000000000000000000000000000000000000000000000000000000000000000000000000000000000000000000000000000000000000000000000000000000000000030000000000000000000000009f0d5cf1804b10fadc48ea88a582783477bc885e00000000000000000000000048a7d0965e173516ab6b0de781e835df6cc990b00000000000000000000000000935ec1a1f4480a063e09f735d593cc44eb6b306000000000000000000000000000000000000000000000000000000000000000000000000000000000000000000000000000000000000000000000000",
        "nonce": "0x0",
        "chainId": "0x279f"
      },
      "additionalContracts": [
        {
          "transactionType": "CREATE2",
          "contractName": null,
          "address": "0x1b6b6a4700d1d57e5eeea39a923875b754295afb",
          "initCode": "0x608060405234801561001057600080fd5b506040516101e63803806101e68339818101604052602081101561003357600080fd5b8101908080519060200190929190505050600073ffffffffffffffffffffffffffffffffffffffff168173ffffffffffffffffffffffffffffffffffffffff1614156100ca576040517f08c379a00000000000000000000000000000000000000000000000000000000081526004018080602001828103825260228152602001806101c46022913960400191505060405180910390fd5b806000806101000a81548173ffffffffffffffffffffffffffffffffffffffff021916908373ffffffffffffffffffffffffffffffffffffffff1602179055505060ab806101196000396000f3fe608060405273ffffffffffffffffffffffffffffffffffffffff600054167fa619486e0000000000000000000000000000000000000000000000000000000060003514156050578060005260206000f35b3660008037600080366000845af43d6000803e60008114156070573d6000fd5b3d6000f3fea264697066735822122003d1488ee65e08fa41e58e888a9865554c535f2c77126a82cb4c0f917f31441364736f6c63430007060033496e76616c69642073696e676c65746f6e20616464726573732070726f766964656400000000000000000000000029fcb43b46531bca003ddc8fcb67ffe91900c762"
        }
      ],
      "isFixedGasLimit": false
    }
  ],
  "receipts": [
    {
      "status": "0x1",
      "cumulativeGasUsed": "0x7736f",
      "logs": [
        {
          "address": "0x1b6b6a4700d1d57e5eeea39a923875b754295afb",
          "topics": [
            "0x141df868a6331af528e38c83b7aa03edc19be66e37ae67f9285bf4f8e3c6a1a8",
            "0x0000000000000000000000004e1dcf7ad4e460cfd30791ccc4f9c8a4f820ec67"
          ],
          "data": "0x000000000000000000000000000000000000000000000000000000000000008000000000000000000000000000000000000000000000000000000000000000020000000000000000000000000000000000000000000000000000000000000000000000000000000000000000fd0732dc9e303f09fcef3a7388ad10a83459ec9900000000000000000000000000000000000000000000000000000000000000030000000000000000000000009f0d5cf1804b10fadc48ea88a582783477bc885e00000000000000000000000048a7d0965e173516ab6b0de781e835df6cc990b00000000000000000000000000935ec1a1f4480a063e09f735d593cc44eb6b306",
          "blockHash": "0xdc9d148c1202b4f52053448d36d9eb9209d447fa43262d23f1a4ae1f38967905",
          "blockNumber": "0x19cabdf",
          "blockTimestamp": "0x69e87c28",
          "transactionHash": "0xc182f6e965536b08c5ca7fb79c808f6ae6330ef5b4ea5507d376773751356e8e",
          "transactionIndex": "0x1",
          "logIndex": "0x1",
          "removed": false
        },
        {
          "address": "0x4e1dcf7ad4e460cfd30791ccc4f9c8a4f820ec67",
          "topics": [
            "0x4f51faf6c4561ff95f067657e43439f0f856d97c04d9ec9070a6199ad418e235",
            "0x0000000000000000000000001b6b6a4700d1d57e5eeea39a923875b754295afb"
          ],
          "data": "0x00000000000000000000000029fcb43b46531bca003ddc8fcb67ffe91900c762",
          "blockHash": "0xdc9d148c1202b4f52053448d36d9eb9209d447fa43262d23f1a4ae1f38967905",
          "blockNumber": "0x19cabdf",
          "blockTimestamp": "0x69e87c28",
          "transactionHash": "0xc182f6e965536b08c5ca7fb79c808f6ae6330ef5b4ea5507d376773751356e8e",
          "transactionIndex": "0x1",
          "logIndex": "0x2",
          "removed": false
        }
      ],
      "logsBloom": "0x00000000000004000000000000000000000000000000000000000000000000000000000000000000000000000000000000000000000000000000000000000000000010000000000000000000000000000000000040000008000000000000000000000000000000000500000080040000000000000100000000000000020000000800000000000200000000000000000000000000000000000000000000000000000000000000000000100000000000000000000000000000000000000000000000000000000000000000000000000000000000000000000000000000000000000000080000010000000000000000100020000000000000000000000000000000",
      "type": "0x2",
      "transactionHash": "0xc182f6e965536b08c5ca7fb79c808f6ae6330ef5b4ea5507d376773751356e8e",
      "transactionIndex": "0x1",
      "blockHash": "0xdc9d148c1202b4f52053448d36d9eb9209d447fa43262d23f1a4ae1f38967905",
      "blockNumber": "0x19cabdf",
      "gasUsed": "0x7736f",
      "effectiveGasPrice": "0x1c7f9bc7ff",
      "from": "0x0935ec1a1f4480a063e09f735d593cc44eb6b306",
      "to": "0x4e1dcf7ad4e460cfd30791ccc4f9c8a4f820ec67",
      "contractAddress": null
    }
  ],
  "libraries": [],
  "pending": [],
  "returns": {
    "0": {
      "internal_type": "address",
      "value": "0x1b6b6A4700D1D57e5eEea39A923875B754295AFb"
    }
  },
  "timestamp": 1776843816733,
  "chain": 10143,
  "commit": "4ae88ea"
}