{
  "transactions": [
    {
      "hash": "0x7271a0ea53613e4fcc6ff931af595c3332a57b6ffd81f8f04e03fc866684df8e",
      "transactionType": "CALL",
      "contractName": null,
      "contractAddress": "0x4e1dcf7ad4e460cfd30791ccc4f9c8a4f820ec67",
      "function": "createProxyWithNonce(address,bytes,uint256)",
      "arguments": [
        "0x29fcB43b46531BcA003ddC8FCB67FFE91900C762",
        "0xb63e800d0000000000000000000000000000000000000000000000000000000000000100000000000000000000000000000000000000000000000000000000000000000200000000000000000000000000000000000000000000000000000000000000000000000000000000000000000000000000000000000000000000000000000180000000000000000000000000fd0732dc9e303f09fcef3a7388ad10a83459ec9900000000000000000000000000000000000000000000000000000000000000000000000000000000000000000000000000000000000000000000000000000000000000000000000000000000000000000000000000000000000000000000000000000000000000000000000000000000000000000000000000000000000000030000000000000000000000009f0d5cf1804b10fadc48ea88a582783477bc885e0000000000000000000000006e5f59e40e3feba6e130fadc308e39297ebfe89f000000000000000000000000faefad55222cfd8143104f3c25047731641d72d00000000000000000000000000000000000000000000000000000000000000000",
        "8980898692636148936067631799220912894601267882893428372075284511891696227779"
      ],
      "transaction": {
        "from": "0xfaefad55222cfd8143104f3c25047731641d72d0",
        "to": "0x4e1dcf7ad4e460cfd30791ccc4f9c8a4f820ec67",
        "gas": "0x7736f",
        "value": "0x0",
        "input": "0x1688f0b900000000000000000000000029fcb43b46531bca003ddc8fcb67ffe91900c762000000000000000000000000000000000000000000000000000000000000006013db022eb1bb6eddc8db3d6a19956cf552c15d021364468fc24daa055db995c300000000000000000000000000000000000000000000000000000000000001a4b63e800d0000000000000000000000000000000000000000000000000000000000000100000000000000000000000000000000000000000000000000000000000000000200000000000000000000000000000000000000000000000000000000000000000000000000000000000000000000000000000000000000000000000000000180000000000000000000000000fd0732dc9e303f09fcef3a7388ad10a83459ec9900000000000000000000000000000000000000000000000000000000000000000000000000000000000000000000000000000000000000000000000000000000000000000000000000000000000000000000000000000000000000000000000000000000000000000000000000000000000000000000000000000000000000030000000000000000000000009f0d5cf1804b10fadc48ea88a582783477bc885e0000000000000000000000006e5f59e40e3feba6e130fadc308e39297ebfe89f000000000000000000000000faefad55222cfd8143104f3c25047731641d72d0000000000000000000000000000000000000000000000000000000000000000000000000000000000000000000000000000000000000000000000000",
        "nonce": "0x0",
        "chainId": "0x279f"
      },
      "additionalContracts": [
        {
          "transactionType": "CREATE2",
          "contractName": null,
          "address": "0xa7fc827fb04688b17633e242c010b98b7c97bc5b",
          "initCode": "0x608060405234801561001057600080fd5b506040516101e63803806101e68339818101604052602081101561003357600080fd5b8101908080519060200190929190505050600073ffffffffffffffffffffffffffffffffffffffff168173ffffffffffffffffffffffffffffffffffffffff1614156100ca576040517f08c379a00000000000000000000000000000000000000000000000000000000081526004018080602001828103825260228152602001806101c46022913960400191505060405180910390fd5b806000806101000a81548173ffffffffffffffffffffffffffffffffffffffff021916908373ffffffffffffffffffffffffffffffffffffffff1602179055505060ab806101196000396000f3fe608060405273ffffffffffffffffffffffffffffffffffffffff600054167fa619486e0000000000000000000000000000000000000000000000000000000060003514156050578060005260206000f35b3660008037600080366000845af43d6000803e60008114156070573d6000fd5b3d6000f3fea264697066735822122003d1488ee65e08fa41e58e888a9865554c535f2c77126a82cb4c0f917f31441364736f6c63430007060033496e76616c69642073696e676c65746f6e20616464726573732070726f766964656400000000000000000000000029fcb43b46531bca003ddc8fcb67ffe91900c762"
        }
      ],
      "isFixedGasLimit": false
    }
  ],
  "receipts": [
    {
      "status": "0x1",
      "cumulativeGasUsed": "0x7736f",
      "logs": [
        {
          "address": "0xa7fc827fb04688b17633e242c010b98b7c97bc5b",
          "topics": [
            "0x141df868a6331af528e38c83b7aa03edc19be66e37ae67f9285bf4f8e3c6a1a8",
            "0x0000000000000000000000004e1dcf7ad4e460cfd30791ccc4f9c8a4f820ec67"
          ],
          "data": "0x000000000000000000000000000000000000000000000000000000000000008000000000000000000000000000000000000000000000000000000000000000020000000000000000000000000000000000000000000000000000000000000000000000000000000000000000fd0732dc9e303f09fcef3a7388ad10a83459ec9900000000000000000000000000000000000000000000000000000000000000030000000000000000000000009f0d5cf1804b10fadc48ea88a582783477bc885e0000000000000000000000006e5f59e40e3feba6e130fadc308e39297ebfe89f000000000000000000000000faefad55222cfd8143104f3c25047731641d72d0",
          "blockHash": "0xd1eea47a605f7cdf40d1c0d27c08c602bc9ba659b5f410b33efc7afe22cdc5eb",
          "blockNumber": "0x1d9a06b",
          "blockTimestamp": "0x6a0174df",
          "transactionHash": "0x7271a0ea53613e4fcc6ff931af595c3332a57b6ffd81f8f04e03fc866684df8e",
          "transactionIndex": "0x1",
          "logIndex": "0x1",
          "removed": false
        },
        {
          "address": "0x4e1dcf7ad4e460cfd30791ccc4f9c8a4f820ec67",
          "topics": [
            "0x4f51faf6c4561ff95f067657e43439f0f856d97c04d9ec9070a6199ad418e235",
            "0x000000000000000000000000a7fc827fb04688b17633e242c010b98b7c97bc5b"
          ],
          "data": "0x00000000000000000000000029fcb43b46531bca003ddc8fcb67ffe91900c762",
          "blockHash": "0xd1eea47a605f7cdf40d1c0d27c08c602bc9ba659b5f410b33efc7afe22cdc5eb",
          "blockNumber": "0x1d9a06b",
          "blockTimestamp": "0x6a0174df",
          "transactionHash": "0x7271a0ea53613e4fcc6ff931af595c3332a57b6ffd81f8f04e03fc866684df8e",
          "transactionIndex": "0x1",
          "logIndex": "0x2",
          "removed": false
        }
      ],
      "logsBloom": "0x00000000000000000000000000000000000000002000000000000000000000000000000000000000000000000000000000000000000000000000000000000000000010000000000000000000000000000000000000000008000000000000000000000000000000000500000000000040008000000100000000000000000000000800000000000200000000000000000000000000000000000000000000000000000000000000000000100000000000000000000000000000200000000000000000000000000000000000000000000000000000000000000008000000000000000000080000010000000004000000100020000000000000000000000000000000",
      "type": "0x2",
      "transactionHash": "0x7271a0ea53613e4fcc6ff931af595c3332a57b6ffd81f8f04e03fc866684df8e",
      "transactionIndex": "0x1",
      "blockHash": "0xd1eea47a605f7cdf40d1c0d27c08c602bc9ba659b5f410b33efc7afe22cdc5eb",
      "blockNumber": "0x1d9a06b",
      "gasUsed": "0x7736f",
      "effectiveGasPrice": "0x1867a93c4f",
      "from": "0xfaefad55222cfd8143104f3c25047731641d72d0",
      "to": "0x4e1dcf7ad4e460cfd30791ccc4f9c8a4f820ec67",
      "contractAddress": null
    }
  ],
  "libraries": [],
  "pending": [],
  "returns": {
    "0": {
      "internal_type": "address",
      "value": "0xa7Fc827fb04688b17633e242C010b98b7C97bC5B"
    }
  },
  "timestamp": 1778480351752,
  "chain": 10143,
  "commit": "a24f55b"
}