{
  "transactions": [
    {
      "hash": "0x51f7a6a7ad42eb7a05df88781f53a52f9a313fb7d846968c58be9fa9730c3acb",
      "transactionType": "CALL",
      "contractName": null,
      "contractAddress": "0x4e1dcf7ad4e460cfd30791ccc4f9c8a4f820ec67",
      "function": "createProxyWithNonce(address,bytes,uint256)",
      "arguments": [
        "0x29fcB43b46531BcA003ddC8FCB67FFE91900C762",
        "0xb63e800d0000000000000000000000000000000000000000000000000000000000000100000000000000000000000000000000000000000000000000000000000000000200000000000000000000000000000000000000000000000000000000000000000000000000000000000000000000000000000000000000000000000000000180000000000000000000000000fd0732dc9e303f09fcef3a7388ad10a83459ec990000000000000000000000000000000000000000000000000000000000000000000000000000000000000000000000000000000000000000000000000000000000000000000000000000000000000000000000000000000000000000000000000000000000000000000000000000000000000000000000000000000000000003000000000000000000000000f658542dbacca2706f391f134c673923ec11af4900000000000000000000000048a7d0965e173516ab6b0de781e835df6cc990b00000000000000000000000001abd02c43b213492c29c6a916e2ae8bf11f6b9ab0000000000000000000000000000000000000000000000000000000000000000",
        "68559158860585971286172724538813973099671632527290857867564431612599729330139"
      ],
      "transaction": {
        "from": "0x1abd02c43b213492c29c6a916e2ae8bf11f6b9ab",
        "to": "0x4e1dcf7ad4e460cfd30791ccc4f9c8a4f820ec67",
        "gas": "0x7735e",
        "value": "0x0",
        "input": "0x1688f0b900000000000000000000000029fcb43b46531bca003ddc8fcb67ffe91900c762000000000000000000000000000000000000000000000000000000000000006097931bd95100945bd5be8aa67a440245d474141b82f6b35085e15325b0a317db00000000000000000000000000000000000000000000000000000000000001a4b63e800d0000000000000000000000000000000000000000000000000000000000000100000000000000000000000000000000000000000000000000000000000000000200000000000000000000000000000000000000000000000000000000000000000000000000000000000000000000000000000000000000000000000000000180000000000000000000000000fd0732dc9e303f09fcef3a7388ad10a83459ec990000000000000000000000000000000000000000000000000000000000000000000000000000000000000000000000000000000000000000000000000000000000000000000000000000000000000000000000000000000000000000000000000000000000000000000000000000000000000000000000000000000000000003000000000000000000000000f658542dbacca2706f391f134c673923ec11af4900000000000000000000000048a7d0965e173516ab6b0de781e835df6cc990b00000000000000000000000001abd02c43b213492c29c6a916e2ae8bf11f6b9ab000000000000000000000000000000000000000000000000000000000000000000000000000000000000000000000000000000000000000000000000",
        "nonce": "0x0",
        "chainId": "0x279f"
      },
      "additionalContracts": [
        {
          "transactionType": "CREATE2",
          "contractName": null,
          "address": "0xef826ca10ea9ebd2c7451fcb5e1833365bcb5433",
          "initCode": "0x608060405234801561001057600080fd5b506040516101e63803806101e68339818101604052602081101561003357600080fd5b8101908080519060200190929190505050600073ffffffffffffffffffffffffffffffffffffffff168173ffffffffffffffffffffffffffffffffffffffff1614156100ca576040517f08c379a00000000000000000000000000000000000000000000000000000000081526004018080602001828103825260228152602001806101c46022913960400191505060405180910390fd5b806000806101000a81548173ffffffffffffffffffffffffffffffffffffffff021916908373ffffffffffffffffffffffffffffffffffffffff1602179055505060ab806101196000396000f3fe608060405273ffffffffffffffffffffffffffffffffffffffff600054167fa619486e0000000000000000000000000000000000000000000000000000000060003514156050578060005260206000f35b3660008037600080366000845af43d6000803e60008114156070573d6000fd5b3d6000f3fea264697066735822122003d1488ee65e08fa41e58e888a9865554c535f2c77126a82cb4c0f917f31441364736f6c63430007060033496e76616c69642073696e676c65746f6e20616464726573732070726f766964656400000000000000000000000029fcb43b46531bca003ddc8fcb67ffe91900c762"
        }
      ],
      "isFixedGasLimit": false
    }
  ],
  "receipts": [
    {
      "status": "0x1",
      "cumulativeGasUsed": "0x7735e",
      "logs": [
        {
          "address": "0xef826ca10ea9ebd2c7451fcb5e1833365bcb5433",
          "topics": [
            "0x141df868a6331af528e38c83b7aa03edc19be66e37ae67f9285bf4f8e3c6a1a8",
            "0x0000000000000000000000004e1dcf7ad4e460cfd30791ccc4f9c8a4f820ec67"
          ],
          "data": "0x000000000000000000000000000000000000000000000000000000000000008000000000000000000000000000000000000000000000000000000000000000020000000000000000000000000000000000000000000000000000000000000000000000000000000000000000fd0732dc9e303f09fcef3a7388ad10a83459ec990000000000000000000000000000000000000000000000000000000000000003000000000000000000000000f658542dbacca2706f391f134c673923ec11af4900000000000000000000000048a7d0965e173516ab6b0de781e835df6cc990b00000000000000000000000001abd02c43b213492c29c6a916e2ae8bf11f6b9ab",
          "blockHash": "0xb429b5f7b83531354605971214ef2895b22ab328a2458abf1677e313c87f83ef",
          "blockNumber": "0x1998813",
          "blockTimestamp": "0x69e73200",
          "transactionHash": "0x51f7a6a7ad42eb7a05df88781f53a52f9a313fb7d846968c58be9fa9730c3acb",
          "transactionIndex": "0x1",
          "logIndex": "0x1",
          "removed": false
        },
        {
          "address": "0x4e1dcf7ad4e460cfd30791ccc4f9c8a4f820ec67",
          "topics": [
            "0x4f51faf6c4561ff95f067657e43439f0f856d97c04d9ec9070a6199ad418e235",
            "0x000000000000000000000000ef826ca10ea9ebd2c7451fcb5e1833365bcb5433"
          ],
          "data": "0x00000000000000000000000029fcb43b46531bca003ddc8fcb67ffe91900c762",
          "blockHash": "0xb429b5f7b83531354605971214ef2895b22ab328a2458abf1677e313c87f83ef",
          "blockNumber": "0x1998813",
          "blockTimestamp": "0x69e73200",
          "transactionHash": "0x51f7a6a7ad42eb7a05df88781f53a52f9a313fb7d846968c58be9fa9730c3acb",
          "transactionIndex": "0x1",
          "logIndex": "0x2",
          "removed": false
        }
      ],
      "logsBloom": "0x00000000000000000000000000000000000000000000000000000000000000000000000000000000000000000000000000000010000000000000000000000000000010000000000000000010000000000000000000000008000000000000000000000000000000000500000000000000000000000100000000000000000000000800000000000200000000000000000000000000000000000000008100000000000100000000000000100000000000000000000000000000000000000000000000000000008000000000000000000000000000000000000000000000000000000000080000010000000000000000100020000000000000000000000000000000",
      "type": "0x2",
      "transactionHash": "0x51f7a6a7ad42eb7a05df88781f53a52f9a313fb7d846968c58be9fa9730c3acb",
      "transactionIndex": "0x1",
      "blockHash": "0xb429b5f7b83531354605971214ef2895b22ab328a2458abf1677e313c87f83ef",
      "blockNumber": "0x1998813",
      "gasUsed": "0x7735e",
      "effectiveGasPrice": "0x1c7f9bc7ff",
      "from": "0x1abd02c43b213492c29c6a916e2ae8bf11f6b9ab",
      "to": "0x4e1dcf7ad4e460cfd30791ccc4f9c8a4f820ec67",
      "contractAddress": null
    }
  ],
  "libraries": [],
  "pending": [],
  "returns": {
    "0": {
      "internal_type": "address",
      "value": "0xEf826Ca10Ea9EbD2C7451FCb5e1833365bCB5433"
    }
  },
  "timestamp": 1776759296222,
  "chain": 10143,
  "commit": "b5f7846"
}